{
  "contractName": "Splitwise",
  "abi": [
    {
      "inputs": [],
      "payable": false,
      "stateMutability": "nonpayable",
      "type": "constructor"
    },
    {
      "constant": true,
      "inputs": [
        {
          "internalType": "address",
          "name": "",
          "type": "address"
        },
        {
          "internalType": "address",
          "name": "",
          "type": "address"
        }
      ],
      "name": "debts",
      "outputs": [
        {
          "internalType": "int32",
          "name": "",
          "type": "int32"
        }
      ],
      "payable": false,
      "stateMutability": "view",
      "type": "function"
    },
    {
      "constant": true,
      "inputs": [
        {
          "internalType": "uint256",
          "name": "",
          "type": "uint256"
        }
      ],
      "name": "users",
      "outputs": [
        {
          "internalType": "address",
          "name": "",
          "type": "address"
        }
      ],
      "payable": false,
      "stateMutability": "view",
      "type": "function"
    },
    {
      "constant": true,
      "inputs": [],
      "name": "getUsers",
      "outputs": [
        {
          "internalType": "address[]",
          "name": "ret",
          "type": "address[]"
        }
      ],
      "payable": false,
      "stateMutability": "view",
      "type": "function"
    },
    {
      "constant": false,
      "inputs": [
        {
          "internalType": "address",
          "name": "creditor",
          "type": "address"
        },
        {
          "internalType": "int32",
          "name": "amount",
          "type": "int32"
        }
      ],
      "name": "add_IOU",
      "outputs": [],
      "payable": false,
      "stateMutability": "nonpayable",
      "type": "function"
    },
    {
      "constant": false,
      "inputs": [
        {
          "internalType": "address",
          "name": "debtor",
          "type": "address"
        },
        {
          "internalType": "address",
          "name": "creditor",
          "type": "address"
        },
        {
          "internalType": "int32",
          "name": "amount",
          "type": "int32"
        }
      ],
      "name": "addDebt",
      "outputs": [],
      "payable": false,
      "stateMutability": "nonpayable",
      "type": "function"
    },
    {
      "constant": true,
      "inputs": [
        {
          "internalType": "address",
          "name": "debtor",
          "type": "address"
        },
        {
          "internalType": "address",
          "name": "creditor",
          "type": "address"
        }
      ],
      "name": "lookup",
      "outputs": [
        {
          "internalType": "int32",
          "name": "ret",
          "type": "int32"
        }
      ],
      "payable": false,
      "stateMutability": "view",
      "type": "function"
    },
    {
      "constant": false,
      "inputs": [],
      "name": "receiveDeposit",
      "outputs": [],
      "payable": true,
      "stateMutability": "payable",
      "type": "function"
    },
    {
      "constant": true,
      "inputs": [],
      "name": "getBalance",
      "outputs": [
        {
          "internalType": "uint256",
          "name": "",
          "type": "uint256"
        }
      ],
      "payable": false,
      "stateMutability": "view",
      "type": "function"
    },
    {
      "constant": false,
      "inputs": [
        {
          "internalType": "uint256",
          "name": "funds",
          "type": "uint256"
        }
      ],
      "name": "withdraw",
      "outputs": [],
      "payable": false,
      "stateMutability": "nonpayable",
      "type": "function"
    }
  ],
  "bytecode": "0x608060405234801561001057600080fd5b50600280546001600160a01b03191633179055610538806100326000396000f3fe6080604052600436106100855760003560e01c80634ac1c33d116100595780634ac1c33d14610188578063713584a6146101dc578063ada187c414610217578063e367ef5e14610253578063fe95a2681461025b57610085565b8062ce8e3e1461008a57806312065fe0146100ef5780632e1a7d4d14610116578063365b98b214610142575b600080fd5b34801561009657600080fd5b5061009f6102a1565b60408051602080825283518183015283519192839290830191858101910280838360005b838110156100db5781810151838201526020016100c3565b505050509050019250505060405180910390f35b3480156100fb57600080fd5b5061010461033a565b60408051918252519081900360200190f35b34801561012257600080fd5b506101406004803603602081101561013957600080fd5b503561033e565b005b34801561014e57600080fd5b5061016c6004803603602081101561016557600080fd5b5035610387565b604080516001600160a01b039092168252519081900360200190f35b34801561019457600080fd5b506101c3600480360360408110156101ab57600080fd5b506001600160a01b03813581169160200135166103ae565b60408051600392830b90920b8252519081900360200190f35b3480156101e857600080fd5b506101c3600480360360408110156101ff57600080fd5b506001600160a01b03813581169160200135166103ce565b34801561022357600080fd5b506101406004803603604081101561023a57600080fd5b506001600160a01b03813516906020013560030b6103fc565b610140610419565b34801561026757600080fd5b506101406004803603606081101561027e57600080fd5b506001600160a01b0381358116916020810135909116906040013560030b61041b565b60005460408051828152602080840282010190915260609180156102cf578160200160208202803883390190505b50905060005b60005481101561033657600081815481106102ec57fe5b9060005260206000200160009054906101000a90046001600160a01b031682828151811061031657fe5b6001600160a01b03909216602092830291909101909101526001016102d5565b5090565b4790565b6002546001600160a01b0316331461035557600080fd5b604051339082156108fc029083906000818181858888f19350505050158015610382573d6000803e3d6000fd5b505b50565b6000818154811061039457fe5b6000918252602090912001546001600160a01b0316905081565b600160209081526000928352604080842090915290825290205460030b81565b6001600160a01b03918216600090815260016020908152604080832093909416825291909152205460030b90565b61040733838361041b565b61041033610468565b61038282610468565b565b6001600160a01b039283166000908152600160209081526040808320949095168252929092529190208054600381810b90930190920b63ffffffff1663ffffffff19909216919091179055565b60005b6000548110156104b557816001600160a01b03166000828154811061048c57fe5b6000918252602090912001546001600160a01b031614156104ad5750610384565b60010161046b565b50600080546001810182559080527f290decd9548b62a8d60345a988386fc84ba6bc95484008f6362f93160ef3e5630180546001600160a01b0383166001600160a01b03199091161790555056fea265627a7a72315820a42fbc5c4cf95062aca82af0dd2937fe37e89eb69c7d65023c95508d50e7bdb264736f6c63430005100032",
  "source": "// SPDX-License-Identifier: GPL-3.0\n\n// Please paste your contract's solidity code here\n// Note that writing a contract here WILL NOT deploy it and allow you to access it from your client\n// You should write and develop your contract in Remix and then, before submitting, copy and paste it here\n\npragma solidity^0.5.0;\n\ncontract Splitwise {\n    address[] public users;\n    mapping(address => mapping(address => int32)) public debts;\n    address owner;\n\n    constructor() public {\n        owner = msg.sender;\n    }\n\n    function getUsers() public view returns (address[] memory ret){\n        ret = new address[](users.length);\n        for (uint i = 0; i < users.length; i++){\n            ret[i] = users[i];\n        }\n    }\n\n    function addUser(address user) private {\n        for (uint i = 0; i < users.length; i++){\n            if (users[i] == user) return;\n        }\n        users.push(user);\n    }\n\n    function add_IOU(address creditor, int32 amount) public {\n        addDebt(msg.sender, creditor, amount);\n        addUser(msg.sender);\n        addUser(creditor);\n    }\n\n    function addDebt(address debtor, address creditor , int32 amount) public {\n      debts[debtor][creditor] += amount;\n    }\n\n    function lookup(address debtor, address creditor) public view returns (int32 ret) {\n        ret = debts[debtor][creditor];\n    }\n\n    modifier ifOwner() {\n        if(owner != msg.sender) {\n            revert();\n        } else {\n            _;\n        }\n    }\n\n    function receiveDeposit() payable public {\n\n    }\n\n    function getBalance() public view returns (uint) {\n        return address(this).balance;\n    }\n\n    function withdraw(uint funds) public ifOwner {\n        msg.sender.transfer(funds);\n    }\n}\n",
  "sourcePath": "/Users/thesoli/Courses/10-Spring00/ItC/Projects/Project 3/decentralized-splitwise/truffle/contracts/Splitwise.sol",
  "compiler": {
    "name": "solc",
    "version": "0.5.16+commit.9c3226ce.Emscripten.clang"
  },
  "schemaVersion": "3.4.1",
  "updatedAt": "2021-07-08T14:08:01.189Z",
  "devdoc": {
    "methods": {}
  },
  "userdoc": {
    "methods": {}
  }
}