{
  "contractName": "Splitwise",
  "abi": [
    {
      "inputs": [],
      "payable": false,
      "stateMutability": "nonpayable",
      "type": "constructor"
    },
    {
      "constant": true,
      "inputs": [
        {
          "internalType": "address",
          "name": "",
          "type": "address"
        },
        {
          "internalType": "address",
          "name": "",
          "type": "address"
        }
      ],
      "name": "debts",
      "outputs": [
        {
          "internalType": "uint32",
          "name": "",
          "type": "uint32"
        }
      ],
      "payable": false,
      "stateMutability": "view",
      "type": "function"
    },
    {
      "constant": true,
      "inputs": [
        {
          "internalType": "uint256",
          "name": "",
          "type": "uint256"
        }
      ],
      "name": "users",
      "outputs": [
        {
          "internalType": "address",
          "name": "",
          "type": "address"
        }
      ],
      "payable": false,
      "stateMutability": "view",
      "type": "function"
    },
    {
      "constant": true,
      "inputs": [],
      "name": "getUsers",
      "outputs": [
        {
          "internalType": "address[]",
          "name": "ret",
          "type": "address[]"
        }
      ],
      "payable": false,
      "stateMutability": "view",
      "type": "function"
    },
    {
      "constant": false,
      "inputs": [
        {
          "internalType": "address",
          "name": "creditor",
          "type": "address"
        },
        {
          "internalType": "uint32",
          "name": "amount",
          "type": "uint32"
        }
      ],
      "name": "add_IOU",
      "outputs": [],
      "payable": false,
      "stateMutability": "nonpayable",
      "type": "function"
    },
    {
      "constant": false,
      "inputs": [
        {
          "internalType": "address",
          "name": "debtor",
          "type": "address"
        },
        {
          "internalType": "address",
          "name": "creditor",
          "type": "address"
        },
        {
          "internalType": "uint32",
          "name": "amount",
          "type": "uint32"
        }
      ],
      "name": "removeDebt",
      "outputs": [],
      "payable": false,
      "stateMutability": "nonpayable",
      "type": "function"
    },
    {
      "constant": true,
      "inputs": [
        {
          "internalType": "address",
          "name": "debtor",
          "type": "address"
        },
        {
          "internalType": "address",
          "name": "creditor",
          "type": "address"
        }
      ],
      "name": "lookup",
      "outputs": [
        {
          "internalType": "uint32",
          "name": "ret",
          "type": "uint32"
        }
      ],
      "payable": false,
      "stateMutability": "view",
      "type": "function"
    },
    {
      "constant": false,
      "inputs": [],
      "name": "deposit",
      "outputs": [],
      "payable": true,
      "stateMutability": "payable",
      "type": "function"
    },
    {
      "constant": true,
      "inputs": [],
      "name": "getBalance",
      "outputs": [
        {
          "internalType": "uint256",
          "name": "",
          "type": "uint256"
        }
      ],
      "payable": false,
      "stateMutability": "view",
      "type": "function"
    },
    {
      "constant": false,
      "inputs": [
        {
          "internalType": "uint256",
          "name": "funds",
          "type": "uint256"
        }
      ],
      "name": "withdraw",
      "outputs": [],
      "payable": false,
      "stateMutability": "nonpayable",
      "type": "function"
    }
  ],
  "bytecode": "0x608060405234801561001057600080fd5b50600280546001600160a01b03191633179055610615806100326000396000f3fe6080604052600436106100855760003560e01c80634ac1c33d116100595780634ac1c33d14610188578063713584a6146101dc57806374eceec314610217578063d0e30db014610261578063d12099e41461026957610085565b8062ce8e3e1461008a57806312065fe0146100ef5780632e1a7d4d14610116578063365b98b214610142575b600080fd5b34801561009657600080fd5b5061009f6102a8565b60408051602080825283518183015283519192839290830191858101910280838360005b838110156100db5781810151838201526020016100c3565b505050509050019250505060405180910390f35b3480156100fb57600080fd5b50610104610341565b60408051918252519081900360200190f35b34801561012257600080fd5b506101406004803603602081101561013957600080fd5b5035610345565b005b34801561014e57600080fd5b5061016c6004803603602081101561016557600080fd5b503561038e565b604080516001600160a01b039092168252519081900360200190f35b34801561019457600080fd5b506101c3600480360360408110156101ab57600080fd5b506001600160a01b03813581169160200135166103b5565b6040805163ffffffff9092168252519081900360200190f35b3480156101e857600080fd5b506101c3600480360360408110156101ff57600080fd5b506001600160a01b03813581169160200135166103d8565b34801561022357600080fd5b506101406004803603606081101561023a57600080fd5b5080356001600160a01b03908116916020810135909116906040013563ffffffff16610409565b6101406104be565b34801561027557600080fd5b506101406004803603604081101561028c57600080fd5b5080356001600160a01b0316906020013563ffffffff166104c0565b60005460408051828152602080840282010190915260609180156102d6578160200160208202803883390190505b50905060005b60005481101561033d57600081815481106102f357fe5b9060005260206000200160009054906101000a90046001600160a01b031682828151811061031d57fe5b6001600160a01b03909216602092830291909101909101526001016102dc565b5090565b4790565b6002546001600160a01b0316331461035c57600080fd5b604051339082156108fc029083906000818181858888f19350505050158015610389573d6000803e3d6000fd5b505b50565b6000818154811061039b57fe5b6000918252602090912001546001600160a01b0316905081565b600160209081526000928352604080842090915290825290205463ffffffff1681565b6001600160a01b03918216600090815260016020908152604080832093909416825291909152205463ffffffff1690565b6001600160a01b0380841660009081526001602090815260408083209386168352929052205463ffffffff808316911610156104765760405162461bcd60e51b815260040180806020018281038252603b8152602001806105a6603b913960400191505060405180910390fd5b6001600160a01b03928316600090815260016020908152604080832094909516825292909252919020805463ffffffff19811663ffffffff9182169390930316919091179055565b565b3360008181526001602090815260408083206001600160a01b03871684529091529020805463ffffffff80821685011663ffffffff199091161790556105059061050a565b610389825b60005b60005481101561055757816001600160a01b03166000828154811061052e57fe5b6000918252602090912001546001600160a01b0316141561054f575061038b565b60010161050d565b50600080546001810182559080527f290decd9548b62a8d60345a988386fc84ba6bc95484008f6362f93160ef3e5630180546001600160a01b0383166001600160a01b03199091161790555056fe416d6f756e742069732067726561746572207468616e207468652064656274206265747765656e20646562746f7220616e64206372656469746f72a265627a7a723158203255ef8a68a8b5cb8b6bd0c3a8333098b0316c4ec4a781d191c09d5df2a52e0464736f6c63430005100032",
  "source": "// SPDX-License-Identifier: GPL-3.0\n\n// Please paste your contract's solidity code here\n// Note that writing a contract here WILL NOT deploy it and allow you to access it from your client\n// You should write and develop your contract in Remix and then, before submitting, copy and paste it here\n\npragma solidity^0.5.0;\n\ncontract Splitwise {\n    address[] public users;\n    mapping(address => mapping(address => uint32)) public debts;\n    address owner;\n\n    constructor() public {\n        owner = msg.sender;\n    }\n\n    function getUsers() public view returns (address[] memory ret){\n        ret = new address[](users.length);\n        for (uint i = 0; i < users.length; i++){\n            ret[i] = users[i];\n        }\n    }\n\n    function addUser(address user) private {\n        for (uint i = 0; i < users.length; i++){\n            if (users[i] == user) return;\n        }\n        users.push(user);\n    }\n\n    function add_IOU(address creditor, uint32 amount) public {\n        debts[msg.sender][creditor] += amount;\n        addUser(msg.sender);\n        addUser(creditor);\n    }\n\n    function removeDebt(address debtor, address creditor , uint32 amount) public {\n        require(\n            debts[debtor][creditor] >= amount,\n            \"Amount is greater than the debt between debtor and creditor\"\n        );\n        debts[debtor][creditor] -= amount;\n    }\n\n    function lookup(address debtor, address creditor) public view returns (uint32 ret) {\n        ret = debts[debtor][creditor];\n    }\n\n    modifier ifOwner() {\n        if(owner != msg.sender) {\n            revert();\n        } else {\n            _;\n        }\n    }\n\n    function deposit() payable public {}\n\n    function getBalance() public view returns (uint) {\n        return address(this).balance;\n    }\n\n    function withdraw(uint funds) public ifOwner {\n        msg.sender.transfer(funds);\n    }\n}\n",
  "sourcePath": "/Users/thesoli/Courses/10-Spring00/ItC/Projects/Project 3/decentralized-splitwise/truffle/contracts/Splitwise.sol",
  "compiler": {
    "name": "solc",
    "version": "0.5.16+commit.9c3226ce.Emscripten.clang"
  },
  "schemaVersion": "3.4.1",
  "updatedAt": "2021-07-10T11:51:58.763Z",
  "networkType": "ethereum",
  "devdoc": {
    "methods": {}
  },
  "userdoc": {
    "methods": {}
  }
}